{
  "transactions": [
    {
      "hash": "0x4aa62bb81890bcc267eb8242047beea496728e01c7d8742a440012cf8fd4eb8c",
      "transactionType": "CALL",
      "contractName": null,
      "contractAddress": "0xe7539ffed4b4018bd6ea15fc742586c18e52438f",
      "function": "deposit(address,uint256)",
      "arguments": [
        "0x21Be2291f91EA2A1d1EB65DbBea2dA8886Ad7a3E",
        "115792089237316195423570985008687907853269984665640564039457584007913129639935"
      ],
      "transaction": {
        "from": "0x21be2291f91ea2a1d1eb65dbbea2da8886ad7a3e",
        "to": "0xe7539ffed4b4018bd6ea15fc742586c18e52438f",
        "gas": "0xfca3",
        "value": "0xde0b6b3a7640000",
        "input": "0x47e7ef2400000000000000000000000021be2291f91ea2a1d1eb65dbbea2da8886ad7a3effffffffffffffffffffffffffffffffffffffffffffffffffffffffffffffff",
        "nonce": "0x67",
        "chainId": "0xaa36a7"
      },
      "additionalContracts": [],
      "isFixedGasLimit": false
    },
    {
      "hash": "0x633d72dcdd5adfcad80a0989bce89c7c9b9dfbbd877d8f36a8e055afbccdd22c",
      "transactionType": "CALL",
      "contractName": null,
      "contractAddress": "0xe7539ffed4b4018bd6ea15fc742586c18e52438f",
      "function": "withdraw()",
      "arguments": [],
      "transaction": {
        "from": "0x21be2291f91ea2a1d1eb65dbbea2da8886ad7a3e",
        "to": "0xe7539ffed4b4018bd6ea15fc742586c18e52438f",
        "gas": "0xa270",
        "value": "0x0",
        "input": "0x3ccfd60b",
        "nonce": "0x68",
        "chainId": "0xaa36a7"
      },
      "additionalContracts": [],
      "isFixedGasLimit": false
    }
  ],
  "receipts": [
    {
      "status": "0x1",
      "cumulativeGasUsed": "0x1a137c0",
      "logs": [],
      "logsBloom": "0x00000000000000000000000000000000000000000000000000000000000000000000000000000000000000000000000000000000000000000000000000000000000000000000000000000000000000000000000000000000000000000000000000000000000000000000000000000000000000000000000000000000000000000000000000000000000000000000000000000000000000000000000000000000000000000000000000000000000000000000000000000000000000000000000000000000000000000000000000000000000000000000000000000000000000000000000000000000000000000000000000000000000000000000000000000000",
      "type": "0x2",
      "transactionHash": "0x4aa62bb81890bcc267eb8242047beea496728e01c7d8742a440012cf8fd4eb8c",
      "transactionIndex": "0x77",
      "blockHash": "0x513c634d64ba3fc96e554bb9e40ff651901f02ac10894262410580e4f7364ebd",
      "blockNumber": "0x69bfd6",
      "gasUsed": "0xb6e8",
      "effectiveGasPrice": "0x59af1a40",
      "from": "0x21be2291f91ea2a1d1eb65dbbea2da8886ad7a3e",
      "to": "0xe7539ffed4b4018bd6ea15fc742586c18e52438f",
      "contractAddress": null
    },
    {
      "status": "0x1",
      "cumulativeGasUsed": "0x1a1a6d2",
      "logs": [],
      "logsBloom": "0x00000000000000000000000000000000000000000000000000000000000000000000000000000000000000000000000000000000000000000000000000000000000000000000000000000000000000000000000000000000000000000000000000000000000000000000000000000000000000000000000000000000000000000000000000000000000000000000000000000000000000000000000000000000000000000000000000000000000000000000000000000000000000000000000000000000000000000000000000000000000000000000000000000000000000000000000000000000000000000000000000000000000000000000000000000000",
      "type": "0x2",
      "transactionHash": "0x633d72dcdd5adfcad80a0989bce89c7c9b9dfbbd877d8f36a8e055afbccdd22c",
      "transactionIndex": "0x78",
      "blockHash": "0x513c634d64ba3fc96e554bb9e40ff651901f02ac10894262410580e4f7364ebd",
      "blockNumber": "0x69bfd6",
      "gasUsed": "0x6f12",
      "effectiveGasPrice": "0x59af1a40",
      "from": "0x21be2291f91ea2a1d1eb65dbbea2da8886ad7a3e",
      "to": "0xe7539ffed4b4018bd6ea15fc742586c18e52438f",
      "contractAddress": null
    }
  ],
  "libraries": [],
  "pending": [],
  "returns": {},
  "timestamp": 1729703055,
  "chain": 11155111,
  "commit": "35a7f1e"
}